{
  "contractName": "ForensicEvidence",
  "abi": [
    {
      "inputs": [],
      "stateMutability": "nonpayable",
      "type": "constructor"
    },
    {
      "anonymous": false,
      "inputs": [
        {
          "indexed": true,
          "internalType": "uint256",
          "name": "evidenceId",
          "type": "uint256"
        },
        {
          "indexed": false,
          "internalType": "string",
          "name": "fileName",
          "type": "string"
        },
        {
          "indexed": false,
          "internalType": "address",
          "name": "uploader",
          "type": "address"
        }
      ],
      "name": "EvidenceAdded",
      "type": "event"
    },
    {
      "anonymous": false,
      "inputs": [
        {
          "indexed": true,
          "internalType": "uint256",
          "name": "evidenceId",
          "type": "uint256"
        },
        {
          "indexed": false,
          "internalType": "bool",
          "name": "verified",
          "type": "bool"
        }
      ],
      "name": "EvidenceVerified",
      "type": "event"
    },
    {
      "anonymous": false,
      "inputs": [
        {
          "indexed": true,
          "internalType": "address",
          "name": "user",
          "type": "address"
        }
      ],
      "name": "UserAuthorized",
      "type": "event"
    },
    {
      "anonymous": false,
      "inputs": [
        {
          "indexed": true,
          "internalType": "address",
          "name": "user",
          "type": "address"
        }
      ],
      "name": "UserRevoked",
      "type": "event"
    },
    {
      "inputs": [
        {
          "internalType": "address",
          "name": "",
          "type": "address"
        }
      ],
      "name": "authorizedUsers",
      "outputs": [
        {
          "internalType": "bool",
          "name": "",
          "type": "bool"
        }
      ],
      "stateMutability": "view",
      "type": "function",
      "constant": true
    },
    {
      "inputs": [
        {
          "internalType": "uint256",
          "name": "",
          "type": "uint256"
        }
      ],
      "name": "evidenceRecords",
      "outputs": [
        {
          "internalType": "string",
          "name": "fileName",
          "type": "string"
        },
        {
          "internalType": "uint256",
          "name": "fileSize",
          "type": "uint256"
        },
        {
          "internalType": "string",
          "name": "fileType",
          "type": "string"
        },
        {
          "internalType": "uint256",
          "name": "uploadTime",
          "type": "uint256"
        },
        {
          "internalType": "string",
          "name": "ipfsHash",
          "type": "string"
        },
        {
          "internalType": "string",
          "name": "blockchainHash",
          "type": "string"
        },
        {
          "internalType": "bool",
          "name": "isVerified",
          "type": "bool"
        },
        {
          "internalType": "address",
          "name": "uploader",
          "type": "address"
        },
        {
          "internalType": "bytes32",
          "name": "integrityHash",
          "type": "bytes32"
        }
      ],
      "stateMutability": "view",
      "type": "function",
      "constant": true
    },
    {
      "inputs": [],
      "name": "owner",
      "outputs": [
        {
          "internalType": "address",
          "name": "",
          "type": "address"
        }
      ],
      "stateMutability": "view",
      "type": "function",
      "constant": true
    },
    {
      "inputs": [],
      "name": "totalEvidence",
      "outputs": [
        {
          "internalType": "uint256",
          "name": "",
          "type": "uint256"
        }
      ],
      "stateMutability": "view",
      "type": "function",
      "constant": true
    },
    {
      "inputs": [
        {
          "internalType": "address",
          "name": "user",
          "type": "address"
        }
      ],
      "name": "authorizeUser",
      "outputs": [],
      "stateMutability": "nonpayable",
      "type": "function"
    },
    {
      "inputs": [
        {
          "internalType": "address",
          "name": "user",
          "type": "address"
        }
      ],
      "name": "revokeUser",
      "outputs": [],
      "stateMutability": "nonpayable",
      "type": "function"
    },
    {
      "inputs": [
        {
          "internalType": "string",
          "name": "_fileName",
          "type": "string"
        },
        {
          "internalType": "uint256",
          "name": "_fileSize",
          "type": "uint256"
        },
        {
          "internalType": "string",
          "name": "_fileType",
          "type": "string"
        },
        {
          "internalType": "string",
          "name": "_ipfsHash",
          "type": "string"
        },
        {
          "internalType": "string",
          "name": "_blockchainHash",
          "type": "string"
        }
      ],
      "name": "addEvidence",
      "outputs": [
        {
          "internalType": "uint256",
          "name": "",
          "type": "uint256"
        }
      ],
      "stateMutability": "nonpayable",
      "type": "function"
    },
    {
      "inputs": [
        {
          "internalType": "uint256",
          "name": "_evidenceId",
          "type": "uint256"
        },
        {
          "internalType": "string",
          "name": "_ipfsHash",
          "type": "string"
        },
        {
          "internalType": "string",
          "name": "_blockchainHash",
          "type": "string"
        }
      ],
      "name": "verifyEvidence",
      "outputs": [
        {
          "internalType": "bool",
          "name": "",
          "type": "bool"
        }
      ],
      "stateMutability": "nonpayable",
      "type": "function"
    },
    {
      "inputs": [
        {
          "internalType": "uint256",
          "name": "_evidenceId",
          "type": "uint256"
        }
      ],
      "name": "getEvidenceDetails",
      "outputs": [
        {
          "internalType": "string",
          "name": "fileName",
          "type": "string"
        },
        {
          "internalType": "uint256",
          "name": "fileSize",
          "type": "uint256"
        },
        {
          "internalType": "string",
          "name": "fileType",
          "type": "string"
        },
        {
          "internalType": "uint256",
          "name": "uploadTime",
          "type": "uint256"
        },
        {
          "internalType": "string",
          "name": "ipfsHash",
          "type": "string"
        },
        {
          "internalType": "string",
          "name": "blockchainHash",
          "type": "string"
        },
        {
          "internalType": "bool",
          "name": "isVerified",
          "type": "bool"
        },
        {
          "internalType": "address",
          "name": "uploader",
          "type": "address"
        },
        {
          "internalType": "bytes32",
          "name": "integrityHash",
          "type": "bytes32"
        }
      ],
      "stateMutability": "view",
      "type": "function",
      "constant": true
    }
  ],
  "bytecode": "0x6080604052348015600e575f5ffd5b50335f5f6101000a81548173ffffffffffffffffffffffffffffffffffffffff021916908373ffffffffffffffffffffffffffffffffffffffff160217905550600160035f3373ffffffffffffffffffffffffffffffffffffffff1673ffffffffffffffffffffffffffffffffffffffff1681526020019081526020015f205f6101000a81548160ff021916908315150217905550611e4b806100b05f395ff3fe608060405234801561000f575f5ffd5b5060043610610091575f3560e01c80638da5cb5b116100645780638da5cb5b1461012f578063c122bbc91461014d578063cf816d601461017d578063eba57a57146101b5578063ef097fc4146101ed57610091565b80631828983a14610095578063226ca9ef146100c557806350e4a910146100f557806367c2a36014610113575b5f5ffd5b6100af60048036038101906100aa91906110d4565b610209565b6040516100bc9190611119565b60405180910390f35b6100df60048036038101906100da91906112a1565b610226565b6040516100ec9190611119565b60405180910390f35b6100fd61043b565b60405161010a9190611338565b60405180910390f35b61012d600480360381019061012891906110d4565b610441565b005b61013761056a565b6040516101449190611360565b60405180910390f35b61016760048036038101906101629190611379565b61058e565b6040516101749190611338565b60405180910390f35b61019760048036038101906101929190611460565b610919565b6040516101ac99989796959493929190611503565b60405180910390f35b6101cf60048036038101906101ca9190611460565b610c25565b6040516101e499989796959493929190611503565b60405180910390f35b610207600480360381019061020291906110d4565b610eb3565b005b6003602052805f5260405f205f915054906101000a900460ff1681565b5f60035f3373ffffffffffffffffffffffffffffffffffffffff1673ffffffffffffffffffffffffffffffffffffffff1681526020019081526020015f205f9054906101000a900460ff16806102c757505f5f9054906101000a900473ffffffffffffffffffffffffffffffffffffffff1673ffffffffffffffffffffffffffffffffffffffff163373ffffffffffffffffffffffffffffffffffffffff16145b610306576040517f08c379a00000000000000000000000000000000000000000000000000000000081526004016102fd906115f4565b60405180910390fd5b5f8411801561031757506002548411155b610356576040517f08c379a000000000000000000000000000000000000000000000000000000000815260040161034d9061165c565b60405180910390fd5b5f60015f8681526020019081526020015f2090505f815f01826001015483600201878786600301548760060160019054906101000a900473ffffffffffffffffffffffffffffffffffffffff166040516020016103b99796959493929190611808565b6040516020818303038152906040528051906020012090505f82600701548214905080836006015f6101000a81548160ff021916908315150217905550867f38507b0866ce0c7c45b3a5f78b8c7a9864c60351350eb6416c730da201b23e49826040516104269190611119565b60405180910390a28093505050509392505050565b60025481565b5f5f9054906101000a900473ffffffffffffffffffffffffffffffffffffffff1673ffffffffffffffffffffffffffffffffffffffff163373ffffffffffffffffffffffffffffffffffffffff16146104cf576040517f08c379a00000000000000000000000000000000000000000000000000000000081526004016104c6906118e8565b60405180910390fd5b600160035f8373ffffffffffffffffffffffffffffffffffffffff1673ffffffffffffffffffffffffffffffffffffffff1681526020019081526020015f205f6101000a81548160ff0219169083151502179055508073ffffffffffffffffffffffffffffffffffffffff167fb0be505cf6e26533f3066ac7722c3f8a5e8a123f43187c7832d333c49603b14660405160405180910390a250565b5f5f9054906101000a900473ffffffffffffffffffffffffffffffffffffffff1681565b5f60035f3373ffffffffffffffffffffffffffffffffffffffff1673ffffffffffffffffffffffffffffffffffffffff1681526020019081526020015f205f9054906101000a900460ff168061062f57505f5f9054906101000a900473ffffffffffffffffffffffffffffffffffffffff1673ffffffffffffffffffffffffffffffffffffffff163373ffffffffffffffffffffffffffffffffffffffff16145b61066e576040517f08c379a0000000000000000000000000000000000000000000000000000000008152600401610665906115f4565b60405180910390fd5b5f8651116106b1576040517f08c379a00000000000000000000000000000000000000000000000000000000081526004016106a890611950565b60405180910390fd5b5f85116106f3576040517f08c379a00000000000000000000000000000000000000000000000000000000081526004016106ea906119b8565b60405180910390fd5b5f835111610736576040517f08c379a000000000000000000000000000000000000000000000000000000000815260040161072d90611a20565b60405180910390fd5b60025f81548092919061074890611a6b565b91905055505f60025490505f878787878742336040516020016107719796959493929190611ab2565b6040516020818303038152906040528051906020012090506040518061012001604052808981526020018881526020018781526020014281526020018681526020018581526020016001151581526020013373ffffffffffffffffffffffffffffffffffffffff1681526020018281525060015f8481526020019081526020015f205f820151815f0190816108069190611cb0565b506020820151816001015560408201518160020190816108269190611cb0565b506060820151816003015560808201518160040190816108469190611cb0565b5060a082015181600501908161085c9190611cb0565b5060c0820151816006015f6101000a81548160ff02191690831515021790555060e08201518160060160016101000a81548173ffffffffffffffffffffffffffffffffffffffff021916908373ffffffffffffffffffffffffffffffffffffffff1602179055506101008201518160070155905050817fb6cbb9f073834f986e9320b944e45c97cf52cca1982fae05334e1a66fde79c4e8933604051610903929190611d7f565b60405180910390a2819250505095945050505050565b60605f60605f6060805f5f5f5f8a11801561093657506002548a11155b610975576040517f08c379a000000000000000000000000000000000000000000000000000000000815260040161096c9061165c565b60405180910390fd5b5f60015f8c81526020019081526020015f209050805f0181600101548260020183600301548460040185600501866006015f9054906101000a900460ff168760060160019054906101000a900473ffffffffffffffffffffffffffffffffffffffff1688600701548880546109e9906116a7565b80601f0160208091040260200160405190810160405280929190818152602001828054610a15906116a7565b8015610a605780601f10610a3757610100808354040283529160200191610a60565b820191905f5260205f20905b815481529060010190602001808311610a4357829003601f168201915b50505050509850868054610a73906116a7565b80601f0160208091040260200160405190810160405280929190818152602001828054610a9f906116a7565b8015610aea5780601f10610ac157610100808354040283529160200191610aea565b820191905f5260205f20905b815481529060010190602001808311610acd57829003601f168201915b50505050509650848054610afd906116a7565b80601f0160208091040260200160405190810160405280929190818152602001828054610b29906116a7565b8015610b745780601f10610b4b57610100808354040283529160200191610b74565b820191905f5260205f20905b815481529060010190602001808311610b5757829003601f168201915b50505050509450838054610b87906116a7565b80601f0160208091040260200160405190810160405280929190818152602001828054610bb3906116a7565b8015610bfe5780601f10610bd557610100808354040283529160200191610bfe565b820191905f5260205f20905b815481529060010190602001808311610be157829003601f168201915b50505050509350995099509950995099509950995099509950509193959799909294969850565b6001602052805f5260405f205f91509050805f018054610c44906116a7565b80601f0160208091040260200160405190810160405280929190818152602001828054610c70906116a7565b8015610cbb5780601f10610c9257610100808354040283529160200191610cbb565b820191905f5260205f20905b815481529060010190602001808311610c9e57829003601f168201915b505050505090806001015490806002018054610cd6906116a7565b80601f0160208091040260200160405190810160405280929190818152602001828054610d02906116a7565b8015610d4d5780601f10610d2457610100808354040283529160200191610d4d565b820191905f5260205f20905b815481529060010190602001808311610d3057829003601f168201915b505050505090806003015490806004018054610d68906116a7565b80601f0160208091040260200160405190810160405280929190818152602001828054610d94906116a7565b8015610ddf5780601f10610db657610100808354040283529160200191610ddf565b820191905f5260205f20905b815481529060010190602001808311610dc257829003601f168201915b505050505090806005018054610df4906116a7565b80601f0160208091040260200160405190810160405280929190818152602001828054610e20906116a7565b8015610e6b5780601f10610e4257610100808354040283529160200191610e6b565b820191905f5260205f20905b815481529060010190602001808311610e4e57829003601f168201915b505050505090806006015f9054906101000a900460ff16908060060160019054906101000a900473ffffffffffffffffffffffffffffffffffffffff16908060070154905089565b5f5f9054906101000a900473ffffffffffffffffffffffffffffffffffffffff1673ffffffffffffffffffffffffffffffffffffffff163373ffffffffffffffffffffffffffffffffffffffff1614610f41576040517f08c379a0000000000000000000000000000000000000000000000000000000008152600401610f38906118e8565b60405180910390fd5b5f5f9054906101000a900473ffffffffffffffffffffffffffffffffffffffff1673ffffffffffffffffffffffffffffffffffffffff168173ffffffffffffffffffffffffffffffffffffffff1603610fcf576040517f08c379a0000000000000000000000000000000000000000000000000000000008152600401610fc690611df7565b60405180910390fd5b5f60035f8373ffffffffffffffffffffffffffffffffffffffff1673ffffffffffffffffffffffffffffffffffffffff1681526020019081526020015f205f6101000a81548160ff0219169083151502179055508073ffffffffffffffffffffffffffffffffffffffff167fb43ac7bf01d16ebcb8c868a4c03fecb1f6984ea4fa1a52c116ef282b8dbb17c560405160405180910390a250565b5f604051905090565b5f5ffd5b5f5ffd5b5f73ffffffffffffffffffffffffffffffffffffffff82169050919050565b5f6110a38261107a565b9050919050565b6110b381611099565b81146110bd575f5ffd5b50565b5f813590506110ce816110aa565b92915050565b5f602082840312156110e9576110e8611072565b5b5f6110f6848285016110c0565b91505092915050565b5f8115159050919050565b611113816110ff565b82525050565b5f60208201905061112c5f83018461110a565b92915050565b5f819050919050565b61114481611132565b811461114e575f5ffd5b50565b5f8135905061115f8161113b565b92915050565b5f5ffd5b5f5ffd5b5f601f19601f8301169050919050565b7f4e487b71000000000000000000000000000000000000000000000000000000005f52604160045260245ffd5b6111b38261116d565b810181811067ffffffffffffffff821117156111d2576111d161117d565b5b80604052505050565b5f6111e4611069565b90506111f082826111aa565b919050565b5f67ffffffffffffffff82111561120f5761120e61117d565b5b6112188261116d565b9050602081019050919050565b828183375f83830152505050565b5f611245611240846111f5565b6111db565b90508281526020810184848401111561126157611260611169565b5b61126c848285611225565b509392505050565b5f82601f83011261128857611287611165565b5b8135611298848260208601611233565b91505092915050565b5f5f5f606084860312156112b8576112b7611072565b5b5f6112c586828701611151565b935050602084013567ffffffffffffffff8111156112e6576112e5611076565b5b6112f286828701611274565b925050604084013567ffffffffffffffff81111561131357611312611076565b5b61131f86828701611274565b9150509250925092565b61133281611132565b82525050565b5f60208201905061134b5f830184611329565b92915050565b61135a81611099565b82525050565b5f6020820190506113735f830184611351565b92915050565b5f5f5f5f5f60a0868803121561139257611391611072565b5b5f86013567ffffffffffffffff8111156113af576113ae611076565b5b6113bb88828901611274565b95505060206113cc88828901611151565b945050604086013567ffffffffffffffff8111156113ed576113ec611076565b5b6113f988828901611274565b935050606086013567ffffffffffffffff81111561141a57611419611076565b5b61142688828901611274565b925050608086013567ffffffffffffffff81111561144757611446611076565b5b61145388828901611274565b9150509295509295909350565b5f6020828403121561147557611474611072565b5b5f61148284828501611151565b91505092915050565b5f81519050919050565b5f82825260208201905092915050565b8281835e5f83830152505050565b5f6114bd8261148b565b6114c78185611495565b93506114d78185602086016114a5565b6114e08161116d565b840191505092915050565b5f819050919050565b6114fd816114eb565b82525050565b5f610120820190508181035f83015261151c818c6114b3565b905061152b602083018b611329565b818103604083015261153d818a6114b3565b905061154c6060830189611329565b818103608083015261155e81886114b3565b905081810360a083015261157281876114b3565b905061158160c083018661110a565b61158e60e0830185611351565b61159c6101008301846114f4565b9a9950505050505050505050565b7f4e6f7420617574686f72697a65640000000000000000000000000000000000005f82015250565b5f6115de600e83611495565b91506115e9826115aa565b602082019050919050565b5f6020820190508181035f83015261160b816115d2565b9050919050565b7f496e76616c69642065766964656e6365204944000000000000000000000000005f82015250565b5f611646601383611495565b915061165182611612565b602082019050919050565b5f6020820190508181035f8301526116738161163a565b9050919050565b7f4e487b71000000000000000000000000000000000000000000000000000000005f52602260045260245ffd5b5f60028204905060018216806116be57607f821691505b6020821081036116d1576116d061167a565b5b50919050565b5f81905092915050565b5f819050815f5260205f209050919050565b5f81546116ff816116a7565b61170981866116d7565b9450600182165f811461172357600181146117385761176a565b60ff198316865281151582028601935061176a565b611741856116e1565b5f5b8381101561176257815481890152600182019150602081019050611743565b838801955050505b50505092915050565b5f819050919050565b61178d61178882611132565b611773565b82525050565b5f61179d8261148b565b6117a781856116d7565b93506117b78185602086016114a5565b80840191505092915050565b5f8160601b9050919050565b5f6117d9826117c3565b9050919050565b5f6117ea826117cf565b9050919050565b6118026117fd82611099565b6117e0565b82525050565b5f611813828a6116f3565b915061181f828961177c565b60208201915061182f82886116f3565b915061183b8287611793565b91506118478286611793565b9150611853828561177c565b60208201915061186382846117f1565b60148201915081905098975050505050505050565b7f4f6e6c79206f776e65722063616e2063616c6c20746869732066756e6374696f5f8201527f6e00000000000000000000000000000000000000000000000000000000000000602082015250565b5f6118d2602183611495565b91506118dd82611878565b604082019050919050565b5f6020820190508181035f8301526118ff816118c6565b9050919050565b7f46696c656e616d652063616e6e6f7420626520656d70747900000000000000005f82015250565b5f61193a601883611495565b915061194582611906565b602082019050919050565b5f6020820190508181035f8301526119678161192e565b9050919050565b7f46696c652073697a65206d7573742062652067726561746572207468616e20305f82015250565b5f6119a2602083611495565b91506119ad8261196e565b602082019050919050565b5f6020820190508181035f8301526119cf81611996565b9050919050565b7f4950465320686173682063616e6e6f7420626520656d707479000000000000005f82015250565b5f611a0a601983611495565b9150611a15826119d6565b602082019050919050565b5f6020820190508181035f830152611a37816119fe565b9050919050565b7f4e487b71000000000000000000000000000000000000000000000000000000005f52601160045260245ffd5b5f611a7582611132565b91507fffffffffffffffffffffffffffffffffffffffffffffffffffffffffffffffff8203611aa757611aa6611a3e565b5b600182019050919050565b5f611abd828a611793565b9150611ac9828961177c565b602082019150611ad98288611793565b9150611ae58287611793565b9150611af18286611793565b9150611afd828561177c565b602082019150611b0d82846117f1565b60148201915081905098975050505050505050565b5f6020601f8301049050919050565b5f82821b905092915050565b5f60088302611b6c7fffffffffffffffffffffffffffffffffffffffffffffffffffffffffffffffff82611b31565b611b768683611b31565b95508019841693508086168417925050509392505050565b5f819050919050565b5f611bb1611bac611ba784611132565b611b8e565b611132565b9050919050565b5f819050919050565b611bca83611b97565b611bde611bd682611bb8565b848454611b3d565b825550505050565b5f5f905090565b611bf5611be6565b611c00818484611bc1565b505050565b5b81811015611c2357611c185f82611bed565b600181019050611c06565b5050565b601f821115611c6857611c39816116e1565b611c4284611b22565b81016020851015611c51578190505b611c65611c5d85611b22565b830182611c05565b50505b505050565b5f82821c905092915050565b5f611c885f1984600802611c6d565b1980831691505092915050565b5f611ca08383611c79565b9150826002028217905092915050565b611cb98261148b565b67ffffffffffffffff811115611cd257611cd161117d565b5b611cdc82546116a7565b611ce7828285611c27565b5f60209050601f831160018114611d18575f8415611d06578287015190505b611d108582611c95565b865550611d77565b601f198416611d26866116e1565b5f5b82811015611d4d57848901518255600182019150602085019450602081019050611d28565b86831015611d6a5784890151611d66601f891682611c79565b8355505b6001600288020188555050505b505050505050565b5f6040820190508181035f830152611d9781856114b3565b9050611da66020830184611351565b9392505050565b7f43616e6e6f74207265766f6b65206f776e6572000000000000000000000000005f82015250565b5f611de1601383611495565b9150611dec82611dad565b602082019050919050565b5f6020820190508181035f830152611e0e81611dd5565b905091905056fea26469706673582212201bfca311a254185751b9a5b252b15d78ab45f417e0cfb5a73368e9c95920535c64736f6c634300081d0033",
  "immutableReferences": {},
  "source": "// SPDX-License-Identifier: MIT\npragma solidity ^0.8.0;\n\ncontract ForensicEvidence {\n    struct Evidence {\n        string fileName;\n        uint256 fileSize;\n        string fileType;\n        uint256 uploadTime;\n        string ipfsHash;\n        string blockchainHash;\n        bool isVerified;\n        address uploader;\n        bytes32 integrityHash;\n    }\n\n    address public owner;\n    mapping(uint256 => Evidence) public evidenceRecords;\n    uint256 public totalEvidence;\n    mapping(address => bool) public authorizedUsers;\n    \n    event EvidenceAdded(uint256 indexed evidenceId, string fileName, address uploader);\n    event EvidenceVerified(uint256 indexed evidenceId, bool verified);\n    event UserAuthorized(address indexed user);\n    event UserRevoked(address indexed user);\n\n    modifier onlyOwner() {\n        require(msg.sender == owner, \"Only owner can call this function\");\n        _;\n    }\n\n    modifier onlyAuthorized() {\n        require(authorizedUsers[msg.sender] || msg.sender == owner, \"Not authorized\");\n        _;\n    }\n\n    constructor() {\n        owner = msg.sender;\n        authorizedUsers[msg.sender] = true;\n    }\n\n    function authorizeUser(address user) public onlyOwner {\n        authorizedUsers[user] = true;\n        emit UserAuthorized(user);\n    }\n\n    function revokeUser(address user) public onlyOwner {\n        require(user != owner, \"Cannot revoke owner\");\n        authorizedUsers[user] = false;\n        emit UserRevoked(user);\n    }\n\n    function addEvidence(\n        string memory _fileName,\n        uint256 _fileSize,\n        string memory _fileType,\n        string memory _ipfsHash,\n        string memory _blockchainHash\n    ) public onlyAuthorized returns (uint256) {\n        require(bytes(_fileName).length > 0, \"Filename cannot be empty\");\n        require(_fileSize > 0, \"File size must be greater than 0\");\n        require(bytes(_ipfsHash).length > 0, \"IPFS hash cannot be empty\");\n        \n        totalEvidence++;\n        uint256 evidenceId = totalEvidence;\n\n        bytes32 integrityHash = keccak256(abi.encodePacked(\n            _fileName,\n            _fileSize,\n            _fileType,\n            _ipfsHash,\n            _blockchainHash,\n            block.timestamp,\n            msg.sender\n        ));\n\n        evidenceRecords[evidenceId] = Evidence({\n            fileName: _fileName,\n            fileSize: _fileSize,\n            fileType: _fileType,\n            uploadTime: block.timestamp,\n            ipfsHash: _ipfsHash,\n            blockchainHash: _blockchainHash,\n            isVerified: true,\n            uploader: msg.sender,\n            integrityHash: integrityHash\n        });\n\n        emit EvidenceAdded(evidenceId, _fileName, msg.sender);\n        return evidenceId;\n    }\n\n    function verifyEvidence(\n        uint256 _evidenceId,\n        string memory _ipfsHash,\n        string memory _blockchainHash\n    ) public onlyAuthorized returns (bool) {\n        require(_evidenceId > 0 && _evidenceId <= totalEvidence, \"Invalid evidence ID\");\n        \n        Evidence storage evidence = evidenceRecords[_evidenceId];\n        bytes32 currentHash = keccak256(abi.encodePacked(\n            evidence.fileName,\n            evidence.fileSize,\n            evidence.fileType,\n            _ipfsHash,\n            _blockchainHash,\n            evidence.uploadTime,\n            evidence.uploader\n        ));\n\n        bool isValid = (currentHash == evidence.integrityHash);\n        evidence.isVerified = isValid;\n        \n        emit EvidenceVerified(_evidenceId, isValid);\n        return isValid;\n    }\n\n    function getEvidenceDetails(uint256 _evidenceId) public view returns (\n        string memory fileName,\n        uint256 fileSize,\n        string memory fileType,\n        uint256 uploadTime,\n        string memory ipfsHash,\n        string memory blockchainHash,\n        bool isVerified,\n        address uploader,\n        bytes32 integrityHash\n    ) {\n        require(_evidenceId > 0 && _evidenceId <= totalEvidence, \"Invalid evidence ID\");\n        Evidence storage evidence = evidenceRecords[_evidenceId];\n        \n        return (\n            evidence.fileName,\n            evidence.fileSize,\n            evidence.fileType,\n            evidence.uploadTime,\n            evidence.ipfsHash,\n            evidence.blockchainHash,\n            evidence.isVerified,\n            evidence.uploader,\n            evidence.integrityHash\n        );\n    }\n}\n",
  "sourcePath": "C:\\Users\\Balaji Rapolu\\OneDrive\\Desktop\\ZERO JAM - PROJECT\\contracts\\ForensicEvidence.sol",
  "compiler": {
    "name": "solc",
    "version": "0.8.29+commit.ab55807c.Emscripten.clang"
  },
  "schemaVersion": "3.4.16",
  "updatedAt": "2025-04-05T20:38:38.968Z",
  "networkType": "ethereum",
  "devdoc": {
    "kind": "dev",
    "methods": {},
    "version": 1
  },
  "userdoc": {
    "kind": "user",
    "methods": {},
    "version": 1
  }
}